:020000040000FA
:060000009FEF01F0120069
:0A00060001005C0300008A00000006
:0400100001000000EB
:0C001400D9CFE6FFE1CFD9FF020EE126B4
:10002000DE6ADD6ADECF02F0DDCF03F0D890035048
:1000300004E6900E025C010E035805E2DF2A010E71
:1000400001E3DB2AEFD7020EE15C02E2E16AE5524E
:10005000E16EE552E7CFD9FF1200D9CFE6FFE1CF3D
:10006000D9FF829282908282FE0EDB50836E829252
:100070008282FE0EDB50100DFE0EF3CFDBFFDB5055
:10008000836E8292C7DFE552E7CFD9FF1200D9CF46
:10009000E6FFE1CFD9FF829282808282FE0EDB50A2
:1000A000836E82928282FE0EDB50100DFE0EF3CF25
:1000B000DBFFDB50836E8292ADDFE552E7CFD9FFE5
:1000C00012009FD8020EE66EC8DFE552480EE66EBB
:1000D000C4DFE5520E0EE66EC0DFE552010EE66E9D
:1000E000BCDFE552400EE66EB8DFE552E66ACFDFD0
:1000F000E552E66ACCDFE552E66AC9DFE552070E53
:10010000E66EC5DFE552080EE66EC1DFE552070E6A
:10011000E66EBDDFE552020EE66EB9DFE552040E73
:10012000E66EB5DFE552800EE66E97DFE5524B0EC8
:10013000E66EADDFE552690EE66EA9DFE5524C0EC4
:10014000E66EA5DFE552640EE66EA1DFE552410ED4
:10015000E66E9DDFE552720EE66E99DFE552590EAE
:10016000E66E95DFE552200EE66E91DFE5524D0E0C
:10017000E66E8DDFE552690EE66E89DFE552430ECD
:10018000E66E85DFE552720EE66E81DFE5524F0EB8
:10019000E66E7DDFE5521200D9CFE6FFE1CFD9FF51
:1001A000020EE126DE6ADD6AFD0EDBCF02F0FE0EF6
:1001B000DBCF03F0DE500224E96EDD500320EA6E4F
:1001C000EF5015E0FD0EDBCF02F0FE0EDBCF03F0AB
:1001D000DE500224E96EDD500320EA6EEF50E66E39
:1001E00056DFE552DF2A010E01E3DB2ADDD7020EDE
:1001F000E15C02E2E16AE552E16EE552E7CFD9FF48
:100200001200D9CFE6FFE1CFD9FF020EE126DE6A68
:10021000DD6ADECF02F0DDCF03F0D890035004E6B4
:10022000A00E025C0F0E035805E2DF2A010E01E367
:10023000DB2AEFD7020EE15C02E2E16AE552E16EF1
:10024000E552E7CFD9FF1200D9CFE6FFE1CFD9FFC2
:10025000020EE126FC0E946E956A33DF8A0EE66E7E
:10026000000EE66E99DFE552E552FFD7020EE15C23
:1002700002E2E16AE552E16EE552E7CFD9FF1200F2
:10028000060EF66E000EF76E000EF86E0001090005
:10029000F550856F0900F550866F03E1856701D041
:1002A0003DD00900F550806F0900F550816F0900BD
:1002B000F550826F09000900F550E96E0900F5500C
:1002C000EA6E090009000900F550836F0900F55036
:1002D000846F09000900F6CF87F0F7CF88F0F8CFD8
:1002E00089F080C0F6FF81C0F7FF82C0F8FF0001EF
:1002F000835302E1845307E00900F550EE6E830753
:10030000F8E28407F9D787C0F6FF88C0F7FF89C0F5
:0E031000F8FF00018507000E865BBFD71200C4
:02031E00000ECF
:10032000F36E00EE00F0060E01D81200EA6002D073
:0E033000EE6AFCD7F350E9601200EE6AFCD7CB
:02033E0015EEBA
:1003400000F025EE00F0F86A019C40EC01F0ADEC05
:0A03500001F024EC01F0FBD71200CD
:02035A0012008F
:01035C0000A0
:00000001FF
