:020000040000FA
:060000009CEF00F012006D
:020006000000F8
:060008005EEF00F01200A3
:02000E001200DE
:0600180074EF00F012007D
:02001E00060ECC
:10002000F66E000EF76E000EF86E00010900F55036
:10003000856F0900F550866F03E1856701D03DD0DB
:100040000900F550806F0900F550816F0900F550E7
:10005000826F09000900F550E96E0900F550EA6E5B
:10006000090009000900F550836F0900F550846FFD
:1000700009000900F6CF87F0F7CF88F0F8CF89F0B4
:1000800080C0F6FF81C0F7FF82C0F8FF00018353F4
:1000900002E1845307E00900F550EE6E8307F8E2B1
:1000A0008407F9D787C0F6FF88C0F7FF89C0F8FF3B
:0C00B00000018507000E865BBFD7120020
:0400BC00DACFE4FFB4
:1000C000E2CFDAFFE652F250020B06E1F050010BEC
:1000D00003E1F050020B04E08B70F292F090F0928A
:1000E000E552E5CFDAFF1100DACFE4FFE2CFDAFF25
:1000F000E652E552E5CFDAFF11000F0EC16E938094
:10010000938293849490F292F288F090F086F09229
:08011000F088F28EFFD7120007
:08011800000EF36E00EE00F092
:10012000060E01D81200EA6002D0EE6AFCD7F35046
:08013000E9601200EE6AFCD741
:0801380015EE00F025EE00F0C9
:10014000F86A019C0FEC00F007EC00F07DEC00F089
:04015000FBD71200C7
:00000001FF
