:020000040000FA
:0600000046EF01F01200C2
:0A0006000100AA02000080000000C3
:040010000D000000DF
:0C001400D9CFE6FFE1CFD9FF020EE126B4
:10002000DE6ADD6ADECF02F0DDCF03F0D890035048
:1000300004E6900E025C010E035805E2DF2A010E71
:1000400001E3DB2AEFD7020EE15C02E2E16AE5524E
:10005000E16EE552E7CFD9FF1200D9CFE6FFE1CF3D
:10006000D9FF829282908282FE0EDB50836E829252
:100070008282FE0EDB50100DFE0EF3CFDBFFDB5055
:10008000836E8292C7DFE552E7CFD9FF1200D9CF46
:10009000E6FFE1CFD9FF829282808282FE0EDB50A2
:1000A000836E82928282FE0EDB50100DFE0EF3CF25
:1000B000DBFFDB50836E8292ADDFE552E7CFD9FFE5
:1000C000120046D8020EE66EC8DFE552480EE66E14
:1000D000C4DFE5520E0EE66EC0DFE552010EE66E9D
:1000E000BCDFE5521200D9CFE6FFE1CFD9FF020E07
:1000F000E126DE6ADD6AFD0EDBCF02F0FE0EDBCF0D
:1001000003F0DE500224E96EDD500320EA6EEF506A
:1001100015E0FD0EDBCF02F0FE0EDBCF03F0DE506C
:100120000224E96EDD500320EA6EEF50E66EAFDF89
:10013000E552DF2A010E01E3DB2ADDD7020EE15C86
:1001400002E2E16AE552E16EE552E7CFD9FF120023
:10015000D9CFE6FFE1CFD9FF020EE126DE6ADD6AE4
:10016000DECF02F0DDCF03F0D890035004E6A00EFE
:10017000025C0F0E035805E2DF2A010E01E3DB2AC1
:10018000EFD7020EE15C02E2E16AE552E16EE55270
:10019000E7CFD9FF1200D9CFE6FFE1CFD9FF020E9A
:1001A000E126FC0E946E956A8CDF800EE66E000EE2
:1001B000E66E99DFE552E552FFD7020EE15C02E2FE
:0E01C000E16AE552E16EE552E7CFD9FF120089
:0201CE00060E1B
:1001D000F66E000EF76E000EF86E00010900F55085
:1001E000926F0900F550936F03E1926701D03DD003
:1001F0000900F5508D6F0900F5508E6F0900F5501C
:100200008F6F09000900F550E96E0900F550EA6E9C
:10021000090009000900F550906F0900F550916F31
:1002200009000900F6CF94F0F7CF95F0F8CF96F0DB
:100230008DC0F6FF8EC0F7FF8FC0F8FF000190530E
:1002400002E1915307E00900F550EE6E9007F8E2E5
:100250009107F9D794C0F6FF95C0F7FF96C0F8FF55
:0C02600000019207000E935BBFD7120054
:04026C00000EF36E1F
:1002700000EE00F0060E01D81200EA6002D0EE6A2D
:0C028000FCD7F350E9601200EE6AFCD7D6
:04028C0015EE00F07B
:1002900025EE00F0F86A019CE7EC00F054EC01F068
:0802A000CBEC00F0FBD71200CB
:0202A800120042
:0602AA004B494C44415297
:0702B00059204A55434100AB
:00000001FF
