:020000040000FA
:06000000C7EF01F0120041
:020006000000F8
:0600080052EF00F01200AF
:02000E001200DE
:08001800D9CFE6FFE1CFD9FFCB
:10002000020EE126DE6ADD6ADECF10F0DDCF11F0D0
:10003000D890115004E6E80E105C030E115805E24A
:10004000DF2A010E01E3DB2AEFD7020EE15C02E2B8
:10005000E16AE552E16EE552E7CFD9FF1200D9CF50
:10006000E6FFE1CFD9FF8B928B90FE0EDB508C6EBA
:100070008B828B92D1DFE552E7CFD9FF1200D9CF27
:10008000E6FFE1CFD9FF8B928B80FE0EDB508C6EAA
:100090008B828B92C1DFE552E7CFD9FF12005BEF75
:0400A00000F012005A
:0C00A400DACFE4FFE2CFDAFFE652E552CB
:1000B000E5CFDAFF1100DACFE4FFE2CFDAFFE65254
:1000C000E552E5CFDAFF1100946A956A0CEC00F076
:1000D000380EE66E2FEC00F0E5520C0EE66E2FECBB
:1000E00000F0E5520E0EE66E2FEC00F0E552010E28
:1000F000E66E2FEC00F0E552010EC26E0B0EC16EE3
:10010000BC0EC06EC282C2B2FED7800EE66E2FEC6D
:1001100000F0E552C450106E116A10C011F0106A60
:10012000C350000110248A6F000E11208B6F8AC00B
:100130008CF08BC08DF0E80E0D6E030E0E6E8CC031
:1001400008F08DC009F07BEC01F008C08CF009C00C
:100150008DF0300E00018C258C6F000E8D218D6F7F
:100160008CC0E6FF3FEC00F0E552E80E0D6E030E8A
:100170000E6E8AC008F08BC009F07BEC01F004C061
:100180008AF005C08BF08AC08CF08BC08DF0640EB5
:100190000D6E0E6A8CC008F08DC009F07BEC01F08A
:1001A00008C08CF009C08DF0300E00018C258C6FDA
:1001B000000E8D218D6F8CC0E6FF3FEC00F0E55204
:1001C000640E0D6E0E6A8AC008F08BC009F07BECDD
:1001D00001F004C08AF005C08BF08AC08CF08BC09F
:1001E0008DF00A0E0D6E0E6A8CC008F08DC009F0FD
:1001F0007BEC01F008C08CF009C08DF0300E0001DE
:100200008C258C6F000E8D218D6F8CC0E6FF3FEC2E
:1002100000F0E5520A0E0D6E0E6A8AC008F08BC01F
:1002200009F07BEC01F004C08AF005C08BF08AC0B5
:100230008CF08BC08DF0300E00018C258C6F000E81
:100240008D218D6F8CC0E6FF3FEC00F0E552000180
:080250008A6B8B6B57D712007B
:08025800060EF66E000EF76EB3
:10026000000EF86E00010900F550856F0900F55089
:10027000866F03E1856701D03DD00900F550806F9E
:100280000900F550816F0900F550826F09000900DF
:10029000F550E96E0900F550EA6E09000900090001
:1002A000F550836F0900F550846F09000900F6CFFF
:1002B00087F0F7CF88F0F8CF89F080C0F6FF81C0D3
:1002C000F7FF82C0F8FF0001835302E1845307E087
:1002D0000900F550EE6E8307F8E28407F9D787C06E
:1002E000F6FF88C0F7FF89C0F8FF00018507000E00
:0602F000865BBFD712007F
:0A02F600006A0EAE84EF01F00D6CFB
:100300000E1EE86A0E22001E09AE8CEF01F0086C8A
:10031000091EE86A0922001EA1EC01F009BE9CEF4B
:1003200001F000AE000C086C091EE86A0922046C9A
:10033000051EE86A0522000C00BE93EF01F001885B
:02034000FF0CB0
:0E034200056A046A100EE76ED8900836093678
:10035000043605360D50045C0E50055805E30D506B
:0E036000045E0E50055A082AE72EF0D7120050
:02036E00000E7F
:10037000F36E00EE00F0060E01D81200EA6002D023
:0E038000EE6AFCD7F350E9601200EE6AFCD77B
:02038E0015EE6A
:1003900000F025EE00F0F86A019C2CEC01F007EC6F
:0A03A00000F064EC00F0FBD712003F
:00000001FF
