:020000040000FA
:06000000CFEF01F0120039
:0A0006000100BC03000080000000B0
:040010000B000000E1
:0C001400D9CFE6FFE1CFD9FF020EE126B4
:10002000DE6ADD6ADECF02F0DDCF03F0D890035048
:1000300004E6900E025C010E035805E2DF2A010E71
:1000400001E3DB2AEFD7020EE15C02E2E16AE5524E
:10005000E16EE552E7CFD9FF1200D9CFE6FFE1CF3D
:10006000D9FF8292829482908282FE0EDB50836E50
:1000700082928282FE0EDB50100DFE0EF3CFDBFF6C
:10008000DB50836E8292C6DFE552E7CFD9FF1200C4
:10009000D9CFE6FFE1CFD9FF829282948296828403
:1000A000FE0EDB50836E82948284FE0EDB50100DB8
:1000B000FE0EF3CFDBFFDB50836E8294ABDFE552A5
:1000C000E7CFD9FF1200D9CFE6FFE1CFD9FF829267
:1000D0008294828082968282FE0EDB50836E8292B0
:1000E0008282FE0EDB50100DFE0EF3CFDBFFDB50E5
:1000F000836E82928FDFE552E7CFD9FF1200D9CF0E
:10010000E6FFE1CFD9FF8292829482908286828438
:10011000FE0EDB50836E82948284FE0EDB50100D47
:10012000FE0EF3CFDBFFDB50836E829473DFE5526C
:10013000E7CFD9FF12008DD8020EE66E8EDFE552B2
:10014000480EE66E8ADFE5520E0EE66E86DFE55259
:10015000010EE66E82DFE55212007BD8020EE66EDB
:1001600097DFE552480EE66E93DFE5520E0EE66E1F
:100170008FDFE552010EE66E8BDFE5521200D9CF1C
:10018000E6FFE1CFD9FF020EE126DE6ADD6AFD0E51
:10019000DBCF02F0FE0EDBCF03F0DE500224E96E6F
:1001A000DD500320EA6EEF5015E0FD0EDBCF02F0CC
:1001B000FE0EDBCF03F0DE500224E96EDD5003209B
:1001C000EA6EEF50E66E7FDFE552DF2A010E01E3B3
:1001D000DB2ADDD7020EE15C02E2E16AE552E16E64
:1001E000E552E7CFD9FF1200D9CFE6FFE1CFD9FF23
:1001F000020EE126DE6ADD6AFD0EDBCF02F0FE0EA6
:10020000DBCF03F0DE500224E96EDD500320EA6EFE
:10021000EF5015E0FD0EDBCF02F0FE0EDBCF03F05A
:10022000DE500224E96EDD500320EA6EEF50E66EE8
:1002300066DFE552DF2A010E01E3DB2ADDD7020E7D
:10024000E15C02E2E16AE552E16EE552E7CFD9FFF7
:100250001200D9CFE6FFE1CFD9FF020EE126DE6A18
:10026000DD6ADECF02F0DDCF03F0D890035004E664
:10027000A00E025C0F0E035805E2DF2A010E01E317
:10028000DB2AEFD7020EE15C02E2E16AE552E16EA1
:10029000E552E7CFD9FF1200D9CFE6FFE1CFD9FF72
:1002A000020EE126F00E946E956A45DF800EE66E32
:1002B000000EE66E64DFE552E5524FDF850EE66E16
:1002C000000EE66E91DFE552E552FFD7020EE15CCB
:1002D00002E2E16AE552E16EE552E7CFD9FF120092
:1002E000060EF66E000EF76E000EF86E00010900A5
:1002F000F550906F0900F550916F03E1906701D0C0
:100300003DD00900F5508B6F0900F5508C6F090046
:10031000F5508D6F09000900F550E96E0900F550A0
:10032000EA6E090009000900F5508E6F0900F550CA
:100330008F6F09000900F6CF92F0F7CF93F0F8CF56
:1003400094F08BC0F6FF8CC0F7FF8DC0F8FF000162
:100350008E5302E18F5307E00900F550EE6E8E07D1
:10036000F8E28F07F9D792C0F6FF93C0F7FF94C069
:0E037000F8FF00019007000E915BBFD712004E
:02037E00000E6F
:10038000F36E00EE00F0060E01D81200EA6002D013
:0E039000EE6AFCD7F350E9601200EE6AFCD76B
:02039E0015EE5A
:1003A00000F025EE00F0F86A019C70EC01F0DDEC45
:0A03B00001F04CEC01F0FBD7120045
:0203BA0012002F
:0403BC0043617361C5
:0703C00000486F7573650032
:00000001FF
