:020000040000FA
:060000002CEF01F01200DC
:020006000000F8
:060008000FEF00F01200F2
:02000E001200DE
:0600180071EF00F0120080
:02001E00DACF37
:10002000E4FFE2CFDAFFE9CFE4FFEACFE4FFF6CF67
:10003000E4FFF7CFE4FFF5CFE4FFF3CFE4FFF4CF25
:10004000E4FFFACFE4FF00EE00F0020EE80403E361
:10005000EECFE4FFFBD700EE02F0000EE80403E36E
:10006000EECFE4FFFBD7E652F2B2F292F2A405D053
:10007000C20ED76EF70ED66EF294F2A00ED032D822
:1000800000018A6F8A5103E08AC08BF001D08B6B2C
:100090008B6B8B9E8B9C8B9AF290E55200EE01F05D
:1000A000000EE80403E3E5CFEDFFFBD700EE01F01F
:1000B000020EE80403E3E5CFEDFFFBD7E5CFFAFF3F
:1000C000E5CFF4FFE5CFF3FFE5CFF5FFE5CFF7FF91
:1000D000E5CFF6FFE5CFEAFFE5CFE9FFE5CFDAFFB1
:1000E000110012008B9E8B8C8B8A81B802D0310E4E
:1000F00034D081BA02D0340E30D081BC02D0370E59
:100100002CD081BE02D0200E28D08B8E8B9C8B8A67
:1001100081B802D0320E21D081BA02D0350E1DD066
:1001200081BC02D0380E19D081BE02D0300E15D05D
:100130008B8E8B8C8B9A81B802D0330E0ED081BA05
:1001400002D0360E0AD081BC02D0390E06D081BE54
:1001500000D0250E02D0000E00D012009368949AB1
:10016000949C949E0F0EC16EF19CF292F288F28ED6
:10017000D58ED59CD59AD596D584D582D590C20EEC
:10018000D76EF70ED66EF28AF290F180F19EF2866B
:0A0190008B9E8B9C8B9AFFD7120008
:06019A00060EF66E000ED9
:1001A000F76E000EF86E00010900F550856F09002A
:1001B000F550866F03E1856701D03DD00900F55009
:1001C000806F0900F550816F0900F550826F0900BA
:1001D0000900F550E96E0900F550EA6E09000900C2
:1001E0000900F550836F0900F550846F090009007C
:1001F000F6CF87F0F7CF88F0F8CF89F080C0F6FF10
:1002000081C0F7FF82C0F8FF0001835302E18453ED
:1002100007E00900F550EE6E8307F8E28407F9D78E
:1002200087C0F6FF88C0F7FF89C0F8FF0001850787
:08023000000E865BBFD712002F
:08023800000EF36E00EE00F071
:10024000060E01D81200EA6002D0EE6AFCD7F35025
:08025000E9601200EE6AFCD720
:0802580015EE00F025EE00F0A8
:10026000F86A019CCDEC00F007EC00F0AEEC00F079
:04027000FBD71200A6
:00000001FF
