:020000040000FA
:0600000009EF02F01200FE
:020006000000F8
:060008000FEF00F01200F2
:02000E001200DE
:060018007BEF00F0120076
:02001E00DACF37
:10002000E4FFE2CFDAFFE9CFE4FFEACFE4FFF6CF67
:10003000E4FFF7CFE4FFF5CFE4FFF3CFE4FFF4CF25
:10004000E4FFFACFE4FF00EE00F0020EE80403E361
:10005000EECFE4FFFBD700EE02F0020EE80403E36C
:10006000EECFE4FFFBD7E652F2B2F292F2A405D053
:10007000C20ED76EF70ED66EF294F2A018D03CD80E
:1000800000018A6F8B6B800B01E08B698A518B11A9
:1000900007E08AC08CF08AC0E6FFA7D8E55201D0FD
:1000A0008C6B00018C6B8B9E8B9C8B9AF290E55233
:1000B00000EE03F0020EE80403E3E5CFEDFFFBD70B
:1000C00000EE01F0020EE80403E3E5CFEDFFFBD7FD
:1000D000E5CFFAFFE5CFF4FFE5CFF3FFE5CFF5FF7E
:1000E000E5CFF7FFE5CFF6FFE5CFEAFFE5CFE9FF84
:1000F000E5CFDAFF110012008B9E8B8C8B8A81B8C2
:1001000002D0330E34D081BA02D0360E30D081BC4A
:1001100002D0390E2CD081BE02D0230E28D08B8E77
:100120008B9C8B8A81B802D0320E21D081BA02D04A
:10013000350E1DD081BC02D0380E19D081BE02D040
:10014000300E15D08B8E8B8C8B9A81B802D0310EED
:100150000ED081BA02D0340E0AD081BC02D0370E44
:1001600006D081BE02D02A0E02D0000E00D01200AE
:10017000D9CFE6FFE1CFD9FF020EE126DE6ADD6AC4
:10018000DECF02F0DDCF03F0D890035004E6900EEE
:10019000025C010E035805E2DF2A010E01E3DB2AAF
:1001A000EFD7020EE15C02E2E16AE552E16EE55250
:1001B000E7CFD9FF1200D9CFE6FFE1CFD9FF829276
:1001C00082908282FE0EDB50836E82928282FE0ECD
:1001D000DB50100DFE0EF3CFDBFFDB50836E8292FF
:1001E000C7DFE552E7CFD9FF1200D9CFE6FFE1CF55
:1001F000D9FF829282808282FE0EDB50836E8292D1
:100200008282FE0EDB50100DFE0EF3CFDBFFDB50C3
:10021000836E8292ADDFE552E7CFD9FF120046D858
:10022000020EE66EC8DFE552480EE66EC4DFE55208
:100230000E0EE66EC0DFE552010EE66EBCDFE55243
:100240001200D9CFE6FFE1CFD9FF020EE126DE6A28
:10025000DD6AFD0EDBCF02F0FE0EDBCF03F0DE50D9
:100260000224E96EDD500320EA6EEF5015E0FD0E2A
:10027000DBCF02F0FE0EDBCF03F0DE500224E96E8E
:10028000DD500320EA6EEF50E66EAFDFE552DF2A65
:10029000010E01E3DB2ADDD7020EE15C02E2E16A36
:1002A000E552E16EE552E7CFD9FF1200D9CFE6FF64
:1002B000E1CFD9FF020EE126DE6ADD6ADECF02F071
:1002C000DDCF03F0D890035004E6A00E025C0F0EC1
:1002D000035805E2DF2A010E01E3DB2AEFD7020E05
:1002E000E15C02E2E16AE552E16EE552E7CFD9FF57
:1002F0001200D9CFE6FFE1CFD9FF020EE126FC0EB6
:10030000946E956A8CDF9368949A949C949E0F0ED9
:10031000C16EF19CF292F288F28ED58ED59CD59A60
:10032000D596D594D592C20ED76EF70ED66EF28AB8
:10033000F290F180F19EF2868B9E8B9C8B9AFFD778
:10034000020EE15C02E2E16AE552E16EE552E7CFBE
:04035000D9FF1200BF
:0C035400060EF66E000EF76E000EF86E3E
:1003600000010900F550856F0900F550866F03E123
:10037000856701D03DD00900F550806F0900F55028
:10038000816F0900F550826F09000900F550E96E90
:100390000900F550EA6E090009000900F550836F65
:1003A0000900F550846F09000900F6CF87F0F7CFF8
:1003B00088F0F8CF89F080C0F6FF81C0F7FF82C0D7
:1003C000F8FF0001835302E1845307E00900F55070
:1003D000EE6E8307F8E28407F9D787C0F6FF88C07E
:1003E000F7FF89C0F8FF00018507000E865BBFD7C5
:0203F0001200F9
:0E03F200000EF36E00EE00F0060E01D81200B1
:10040000EA6002D0EE6AFCD7F350E9601200EE6AAF
:02041000FCD717
:0E04120015EE00F025EE00F0F86A019CAAEC51
:0E04200001F007EC00F079EC01F0FBD71200C0
:00000001FF
