:020000040000FA
:06000000EBEF01F012001D
:0A0006000100F40300008000000078
:040010000D000000DF
:0C001400D9CFE6FFE1CFD9FF020EE126B4
:10002000DE6ADD6ADECF14F0DDCF15F0900E086ECB
:10003000010E096EFD0EDBCF0DF0FE0EDBCF0EF0D4
:10004000AEEC01F006C016F007C017F015501718F7
:10005000E8AE02D0173404D01650145C175015586F
:1000600005E2DF2A010E01E3DB2ADCD7020EE15CA8
:1000700002E2E16AE552E16EE552E7CFD9FF1200F4
:10008000D9CFE6FFE1CFD9FF829282908282FE0E25
:10009000DB50836E82928282FE0EDB50100DFE0ECC
:1000A000F3CFDBFFDB50836E8292010EE66EE66AD1
:1000B000B1DFE552E552E552E7CFD9FF1200D9CFC3
:1000C000E6FFE1CFD9FF829282808282FE0EDB5072
:1000D000836E82928282FE0EDB50100DFE0EF3CFF5
:1000E000DBFFDB50836E8292010EE66EE66A92DFE2
:1000F000E552E552E552E7CFD9FF120046D8020E8D
:10010000E66EBEDFE552480EE66EBADFE5520E0E31
:10011000E66EB6DFE552010EE66EB2DFE552120082
:10012000D9CFE6FFE1CFD9FF020EE126DE6ADD6A14
:10013000FD0EDBCF14F0FE0EDBCF15F0DE501424E5
:10014000E96EDD501520EA6EEF5015E0FD0EDBCFB5
:1001500014F0FE0EDBCF15F0DE501424E96EDD50F6
:100160001520EA6EEF50E66EAADFE552DF2A010E97
:1001700001E3DB2ADDD7020EE15C02E2E16AE5522F
:10018000E16EE552E7CFD9FF1200D9CFE6FFE1CF0C
:10019000D9FF020EE126DE6ADD6ADECF14F0DDCF84
:1001A00015F0D890155004E6A00E145C0F0E1558EB
:1001B00005E2DF2A010E01E3DB2AEFD7020EE15C44
:1001C00002E2E16AE552E16EE552E7CFD9FF1200A3
:1001D000D9CFE6FFE1CFD9FFE652DF6A8B988B8655
:1001E0008B8483B802D0310EDF6E83BA02D0340E16
:1001F000DF6E83BC02D0370EDF6E83BE02D02A0EC4
:10020000DF6E8B888B968B8483B802D0320EDF6EC4
:1002100083BA02D0350EDF6E83BC02D0380EDF6E9B
:1002200083BE02D0300EDF6E8B888B868B9483B8B2
:1002300002D0330EDF6E83BA02D0360EDF6E83BC7F
:1002400002D0390EDF6E83BE02D0230EDF6E8B9894
:100250008B968B94050EE66EE66ADCDEE552E5527F
:10026000DF5000D0E552E552E7CFD9FF1200D9CFD9
:10027000E6FFE1CFD9FF020EE126BC0E936E946E2D
:10028000956A0BD8FED7020EE15C02E2E16AE55204
:10029000E16EE552E7CFD9FF1200D9CFE6FFE1CFFB
:1002A000D9FFE65295DFDF6EDF5004E0DFCFE6FFD7
:0E02B00006DFE552E552E552E7CFD9FF120016
:0202BE00060E2A
:1002C000F66E000EF76E000EF86E00010900F55094
:1002D000926F0900F550936F03E1926701D03DD012
:1002E0000900F5508D6F0900F5508E6F0900F5502B
:1002F0008F6F09000900F550E96E0900F550EA6EAC
:10030000090009000900F550906F0900F550916F40
:1003100009000900F6CF94F0F7CF95F0F8CF96F0EA
:100320008DC0F6FF8EC0F7FF8FC0F8FF000190531D
:1003300002E1915307E00900F550EE6E9007F8E2F4
:100340009107F9D794C0F6FF95C0F7FF96C0F8FF64
:0C03500000019207000E935BBFD7120063
:04035C0009C013F0D1
:1003600008C012F008500D02F4CF07F0F3CF06F0EA
:1003700009500E02F4CF09F0F3CF08F00D02F3504C
:100380000726F4500822E86A092212500E02F350A0
:100390000726F4500822E86A09220EAED4EF01F0D5
:1003A0001250085E1350095A13AE000C0D50085E2F
:0603B0000E50095A000C7A
:0A03B600000EF36E00EE00F0060EDC
:1003C00001D81200EA6002D0EE6AFCD7F350E9606F
:0603D0001200EE6AFCD7EA
:0A03D60015EE00F025EE00F0F86AC5
:1003E000019C5FEC01F0F9EC01F037EC01F0FBD778
:0203F0001200F9
:0203F2001200F7
:0C03F4004B494C44415259204A554341AA
:0104000000FB
:00000001FF
