:020000040000FA
:06000000D8EF02F012002F
:020006001200E6
:0600080016EF00F01200EB
:02000E00303090
:070010003A30303A303000B5
:0600180085EF00F012006C
:02001E000100DF
:0C002000E8050000800000001000000057
:04002C00DACFE4FF44
:10003000E2CFDAFFE9CFE4FFEACFE4FFF6CFE4FF57
:10004000F7CFE4FFF5CFE4FFF3CFE4FFF4CFE4FF15
:10005000FACFE4FF00EE00F0100EE80403E3EECF69
:10006000E4FFFBD700EE10F0020EE80403E3EECF4E
:10007000E4FFFBD7E652F2B2F292F2A405D0C20E30
:10008000D76EF70ED66EF294F2A01BD00CD90001F9
:100090009A6F9B6B800B01E09B699A519B110AE060
:1000A0009AC09CF09AC0E6FF9BC0E6FFD3D8E55209
:1000B000E55201D09C6B00019C6B8B9E8B9C8B9AB4
:1000C000F290E55200EE11F0020EE80403E3E5CFF2
:1000D000EDFFFBD700EE0FF0100EE80403E3E5CFD1
:1000E000EDFFFBD7E5CFFAFFE5CFF4FFE5CFF3FF58
:1000F000E5CFF5FFE5CFF7FFE5CFF6FFE5CFEAFF68
:10010000E5CFE9FFE5CFDAFF1100120085C009F065
:100110000A0E0E6EAEEC02F00550300F00018E6F2D
:100120000A0E106E10C00EF085C009F0AEEC02F0A1
:100130000950300F00018D6F84C009F00A0E0E6E59
:10014000AEEC02F00550300F00018B6F0A0E106EFE
:1001500010C00EF084C009F0AEEC02F00950300F70
:1001600000018A6F83C009F00A0E0E6EAEEC02F039
:100170000550300F0001886F0A0E106E10C00EF08F
:1001800083C009F0AEEC02F00950300F0001876F18
:100190001200870EE66E000EE66E16D9E552E552A5
:1001A000030EE66ECBD8E5520001852B85C009F021
:1001B0000A0E0E6EAEEC02F00550300F00018E6F8D
:1001C0000A0E106E10C00EF085C009F0AEEC02F001
:1001D0000950300F00018D6F84C009F00A0E0E6EB9
:1001E000AEEC02F00550300F00018B6F0A0E106E5E
:1001F00010C00EF084C009F0AEEC02F00950300FD0
:1002000000018A6F83C009F00A0E0E6EAEEC02F098
:100210000550300F0001886F0A0E106E10C00EF0EE
:1002200083C009F0AEEC02F00950300F0001876F77
:1002300081AE0FD03C0E855D0BE1856B842B3C0EAF
:10024000845D06E1846B832B180E835D01E1836B73
:10025000A0D71200D9CFE6FFE1CFD9FF24D8E66EB0
:10026000FD0EDBCFE9FFFE0EDBCFEAFFE552E750E4
:10027000EF6EFD0EDBCFE9FFFE0EDBCFEAFFEF50A6
:10028000250802E10001842BFD0EDBCFE9FFFE0E05
:10029000DBCFEAFFEF50200802E10001832BE5529B
:1002A000E7CFD9FF12008B9E8B8C8B8A81B800D050
:1002B00081BA00D081BC00D081BE02D0250E1AD0F8
:1002C0008B8E8B9C8B8A81B800D081BA00D081BC88
:1002D00000D081BE00D08B8E8B8C8B9A81B800D0E1
:1002E00081BA00D081BC00D081BE02D0200E02D0E5
:1002F000000E00D01200D9CFE6FFE1CFD9FF020EE9
:10030000E126DE6ADD6ADECF10F0DDCF11F0D89095
:10031000115004E6700E105C170E115805E2DF2A2A
:10032000010E01E3DB2AEFD7020EE15C02E2E16A93
:10033000E552E16EE552E7CFD9FF1200D9CFE6FFD3
:10034000E1CFD9FF829282908282FE0EDB50836ED3
:1003500082928282FE0EDB50100DFE0EF3CFDBFF89
:10036000DB50836E8292C7DFE552E7CFD9FF1200E0
:10037000D9CFE6FFE1CFD9FF829282808282FE0E42
:10038000DB50836E82928282FE0EDB50100DFE0ED9
:10039000F3CFDBFFDB50836E8292ADDFE552E7CF18
:1003A000D9FF120046D8020EE66EC8DFE552480EAD
:1003B000E66EC4DFE5520E0EE66EC0DFE552010EBA
:1003C000E66EBCDFE5521200D9CFE6FFE1CFD9FFE0
:1003D000020EE126DE6ADD6AFD0EDBCF10F0FE0EB6
:1003E000DBCF11F0DE501024E96EDD501120EA6EF3
:1003F000EF5015E0FD0EDBCF10F0FE0EDBCF11F05D
:10040000DE501024E96EDD501120EA6EEF50E66EEA
:10041000AFDFE552DF2A010E01E3DB2ADDD7020E52
:10042000E15C02E2E16AE552E16EE552E7CFD9FF15
:100430001200D9CFE6FFE1CFD9FF020EE126DE6A36
:10044000DD6ADECF10F0DDCF11F0D890115004E658
:10045000A00E105C0F0E115805E2DF2A010E01E319
:10046000DB2AEFD7020EE15C02E2E16AE552E16EBF
:10047000E552E7CFD9FF1200FC0E946E956A92DF29
:100480009368949A949C949E0F0EC16EF19CF29284
:10049000F288F28ED58ED59CD59AD596D594D592E4
:1004A000C20ED76EF70ED66EF28AF290F180F19EF0
:0E04B000F2868B9E8B9C8B9A6CDEFFD712001F
:0204BE001E0E10
:1004C000F66E000EF76E000EF86E00010900F55092
:1004D000956F0900F550966F03E1956701D03DD007
:1004E0000900F550906F0900F550916F0900F55023
:1004F000926F09000900F550E96E0900F550EA6EA7
:10050000090009000900F550936F0900F550946F38
:1005100009000900F6CF97F0F7CF98F0F8CF99F0DF
:1005200090C0F6FF91C0F7FF92C0F8FF000193530F
:1005300002E1945307E00900F550EE6E9307F8E2EC
:100540009407F9D797C0F6FF98C0F7FF99C0F8FF56
:0C05500000019507000E965BBFD712005B
:04055C00006A0EAE75
:10056000B4EF02F00E6C001E09AEB9EF02F0096C98
:10057000001EE6EC02F009BEC3EF02F000AE000C74
:10058000096C056C000C00BEC0EF02F00188FF0C86
:10059000000EF36E00EE00F0060E01D81200EA60C5
:1005A00002D0EE6AFCD7F350E9601200EE6AFCD785
:1005B00015EE00F025EE00F0F86A019C5FEC02F009
:0C05C00003EC00F03CEC02F0FBD7120052
:0405CC00056A080EA6
:1005D000E76ED890093605360E50055C02E3056ECD
:0805E000092AE72EF7D71200EB
:0805E8000E00000000000530C8
:0805F000303A30303A3030009F
:00000001FF
